:020000040800F2
:10000000F8050020D9000008E1100008A110000840
:1000100000000000000000000000000000000000E0
:10002000000000000000000000000000E5100008D3
:100030000000000000000000E3100008E7100008C6
:10004000EB00000800000000EB000008EB000008D7
:10005000EB000008EB000008EB000008EB000008D4
:1000600000000000EB000008EB000008EB000008B7
:10007000EB000008EB000008EB00000800000000A7
:10008000EB0000080000000000000000EB0000088A
:1000900000000000EB000008EB000008EB00000887
:1000A000EB000008EB000008EB000008EB00000884
:1000B000EB0000080000000000000000000000004D
:1000C0000448854600F03EFA004800470520000835
:1000D000C046C046F8050020044880470448004751
:1000E000FEE7FEE7FEE7FEE7FEE7FEE74F1100084A
:1000F000C100000830B50B46014600202022012433
:1001000009E00D46D5409D4205D31D469540491B4B
:100110002546954040191546521E002DF1DC30BD94
:10012000D2B201E00270401C491EFBD2704700228F
:10013000F6E710B513460A4604461946FFF7F0FFE6
:10014000204610BD421C0178401C0029FBD1801ABA
:100150007047F0B51FB40646002082B00546402423
:10016000019100901BE0019922460F46304600F0B5
:100170000BFA049A059B801A994110D31046194630
:10018000224600F0F1F9361A8F41019722460120EC
:100190000021009F00F0E8F938184D4100902046FA
:1001A000641E0028DFDC019B00982946324607B018
:1001B000F0BD0000F0B507460846584087B0C00FB4
:1001C000049048000E46590040084908BC1A88416E
:1001D00005D2384631461E4617460B4602465800A1
:1001E000400810434DD0300D039040055900400D9C
:1001F000490D0590401A0290402873DA1803012136
:10020000000B09050843019004980092002806D0CD
:100210001146019A494200209041009101900298B4
:1002200040210A1A0199009800F09EF905460C46F3
:100230006B4607CB00F0B9F9C0197141039A0E0D56
:100240000023D71756401A467A40164344D0049AE2
:10025000002A2DD0029A012A039A15DC1205C01A31
:10026000914101263605001C7141D20F059ED2072F
:100270000093019202962A46234600F0B6F907B091
:10028000F0BD38463146FAE71605234A0F46B21844
:10029000C01AB74101210905001C4F4100187F41D8
:1002A000114618187941E20F10436D19644113E0AB
:1002B000E2076D0815436408C2071443039A012638
:1002C0001205C01A91413605001C7141CE07400845
:1002D00030434908C01851412A46234600F078F9B6
:1002E000CDE7FFE7049801224000C117121A00234E
:1002F0008B4104983146C417381AA141EEE730B457
:100300000124E407634030BC54E730B40124E4071F
:10031000614030BC4EE700000000E0FFF0B51FB4C4
:1003200088B00B990998002448400999C00F4900EA
:1003300049080991C0070B990090490049080B91A1
:1003400009990898A64608431CD00B990A980843B7
:1003500018D0099801244000420D4800410D099829
:1003600024050003000B204309900B980003000BA9
:1003700020430B9050181C4940180022019014464D
:10038000104605E0002001460DB0F0BD032801DA5B
:10039000034600E003239C46C11A0AAE0AE05F0050
:1003A00008ADED5B4F00F75B7D430027AA187C4149
:1003B000491C5B1E6145F2DD410004AB5A52210429
:1003C000120C0A43240C401C0828DFDB0198029021
:1003D0000099704601910090059B049A0799069830
:1003E00000F003F9D0E700000DFCFFFFF0B50C466C
:1003F0005C4085B0E40FE40703944C0000266408D9
:1004000059009446490802460296224321D062468A
:100410000A431ED06200570D4A000E032303550DF8
:10042000012402462C492405781B1B0B360B40186F
:1004300023432643614600901C46501AB44103D31F
:100440000098401C009002E0921800985B41002840
:1004500003DA0020014605B0F0BD002001210905A6
:100460000746864611E064461D46141BB54106D377
:100470006546521BB341744607430C43A646CD075D
:1004800040084908284392185B4105460D43EAD1CC
:100490001046184313D06046194650407140084337
:1004A00006D06046101AB34106D20122002306E0AE
:1004B00000220123DB0702E00122D24353100098FF
:1004C00074460105381C6141029C039D0019694175
:1004D00000F07EF8BFE70000FD0300004A000903BA
:1004E0000123090B1B0519430A4B10B5520D9A4203
:1004F00002DA0020014610BD064B34339A4203DC79
:100500009A1A00F041F810BD034BD21800F02CF8F5
:1005100010BD0000FF030000CDFBFFFF10B5002958
:1005200004DB0124E40740428C412146002B04DB1C
:100530001C460123DB075242A341994200D190425D
:1005400010BD0000064C0125064E05E0E36807CC0F
:100550002B430C3C98471034B442F7D3FFF7B4FD5B
:10056000D8250008F825000810B5202A04DB01462C
:10057000203A9140002010BD914020239C1A034650
:10058000E3401943904010BD10B5202A04DB084613
:10059000203AD040002110BD0B46D340D04020244B
:1005A000A21A91400843194610BD10B5202A06DB57
:1005B000CB170846203A1041C1170B4306E00B4603
:1005C0001341D0402024A21A91400843194610BD7F
:1005D00010B5002B08DA0024401C614192185B41E1
:1005E0001A4301D14008400010BDF0B51FB482B0DD
:1005F00005460C0003D0084600F0CEFF02E000F0F4
:10060000CBFF20300246009021462846FFF7ACFF82
:10061000049B059A04460F4618431143084314D01F
:10062000184610431BD0009840210A1A1846059915
:10063000FFF7AAFF05460E46009A05990498FFF7B2
:1006400093FF084305D0012004E02046394607B057
:10065000F0BD0020C11705430E432C4337430099DA
:100660000E986305401A7905E40A00220C43FD0A3E
:100670000A3002D500200146E9E701051019694159
:100680000C9C0D9D00196941FFF7A2FFDFE770B5D3
:10069000054600F0D3F8044600F0D0F8001BA8424D
:1006A000FAD970BD70B5044600F0C8F80546601C64
:1006B00002D004480078241800F0C0F8401BA04283
:1006C000FAD370BD08000020F0B5002303249AE09F
:1006D0002A4601259D402A407ED00E79B607B60FE6
:1006E000012E01D0022E16D186682746B4465E0040
:1006F000B646B7406646BE43B446CF687646B74076
:100700006646374387604668AE430D79ED06ED0FC8
:100710009D40354345600D79ED43AD0708D0C56870
:100720005F002646BE40B5438E68BE402E43C6607D
:100730000D79AD07AD0F022D0ED1DD08AD002D18DE
:10074000AC462D6A5E07F60E0F27B740BD430F6912
:10075000B7402F4365462F6205685F002646BE40BE
:10076000B5430E79B607B60FBE402E4306604D68FE
:10077000AD03AD0F46D09E08264DB6007519AC46A8
:100780002D6E9E07F60E0F27B740BD4305273F0786
:10079000B84201D100270FE01F4FB84201D1012715
:1007A0000AE01E4FB84201D1022705E01C4FB842B3
:1007B00001D1032700E00527B7402F43154D6646BA
:1007C00037662D684E689543F60200D51543114FE4
:1007D0003D607D68954300E014E04E68B60200D5A8
:1007E00015437D600B4D80356E684F689643BF039F
:1007F00000D516436E602E684F689643FF0300D500
:1008000016432E605B1C0A681546DA4000D05FE78D
:10081000F0BD000000180240000400500008005025
:10082000000C00500069084000D001207047002AE9
:1008300001D0816170478162704700000148806883
:10084000704700000800002070B504000FD0216838
:100850001548086021681548086003CC416020688D
:10086000083C21688860FFF7E9FF05460CE001209D
:1008700070BDFFF7E3FF401B312805D92068C06831
:10088000400701D0032070BD2068C0684007F0D148
:1008900020680269E1688A4201D0016101E00449EF
:1008A0000160002070BD0000CCCC00005555000058
:1008B000AAAA0000006802490160002070470000F9
:1008C000AAAA0000024881680278891881607047EE
:1008D0000800002010B50848002401688215114363
:1008E0000160032000F00AF8002801D0012401E093
:1008F00000F028F8204610BD0020024070B50F4ED1
:10090000002431780546002915D07D20C000FFF76E
:10091000F1FB01460A480068FFF7ECFB00F044FBDE
:10092000002808D1042D06D200222946401E00F0DE
:100930001FF8756000E00124204670BD080000200B
:100940001400002008B50948016801221143016024
:1009500000681040009005484038C26B01040A430B
:10096000C263C06B0840009008BD00004010024008
:1009700010B500F029FE10BD10B50F4C2168032200
:100980005202914301432160C11FFF39FA390ED150
:100990000A480621006848430949FFF7ABFB401CA1
:1009A00002E0002805D0401E61694905F9D4002005
:1009B00010BD032010BD0000007000401400002096
:1009C00040420F00F8B50F46060043D04D4D286851
:1009D0004007400FB84213D22868C008C00038430F
:1009E0002860FFF72BFF044605E0FFF727FF011BF8
:1009F0004548814261D828684007400FB842F4D189
:100A00003068424C81070DD5400704D5A068072106
:100A100009030843A060A0680F2109028843B16858
:100A20000843A0603078C00732D0706801280AD02F
:100A300002280BD000280FD03449403103280ED0B3
:100A4000C969890704E02168890301E021688901F7
:100A5000002906DB0120F8BD21684905F8E7096A8D
:100A6000EFE7A168C908C9000143A160FFF7E6FEEE
:100A7000009006E0FFF7E2FE0099411A2248814209
:100A80001BD8A068382108407168C9008842F1D19C
:100A900028684007400FB84217D91A480168C908AA
:100AA000C90039430160FFF7C9FE054607E0FFF7BB
:100AB000C5FE411B1448814201D90320F8BD1148ED
:100AC00000684007400FB842F1D13078400706D5A2
:100AD000A068072109038843F1680843A06000F07B
:100AE00031F8A1683C2289091140094A515CC906C4
:100AF000C90EC8400749086007480068FFF7FEFEB6
:100B0000F8BD0000002002408813000000100240E1
:100B100078250008140000200C0000200648074932
:100B200000688968064A4904490F8900515CC90672
:100B3000C90EC84070470000140000200010024099
:100B4000B825000810B5204CA068204A8006400F48
:100B500016D0A0688006410F501001290FD0A1685F
:100B60008906490F022912D0A0688006400F042888
:100B700023D0A0688006400F032821D0002010BD9C
:100B8000206801218004400F8140104612E0E16896
:100B90008B07E1689B0F4906490F491C032B00D0C6
:100BA0001046FFF7A7FAE1684904490E4843E16897
:100BB000490F491CFFF79EFA10BD0120C00310BD6C
:100BC0007D20000210BD0000001002400024F4004F
:100BD000F8B504007ED020783827C007E94D0028FA
:100BE00046D0A868E96838408907890F102802D0E4
:100BF00008280BD001E0032908D001206268000416
:100C000082420AD129680143296015E028688003DF
:100C10002ED560680028DDD02AE0052301211B04C1
:100C200089049A422A6802D10A432A60EAE7824389
:100C30002A60286888432860606800280CD0FFF785
:100C4000FDFD064604E0FFF7F9FD801B642873D81C
:100C500028688003F7D50BE0FFF7F0FD064604E0B7
:100C6000FFF7ECFD801B6428F1D828688003F7D4D7
:100C70002078800769D5A868E96838408A07072185
:100C8000920FC902102802D0002813D001E0022AD6
:100C900010D0E068002846D02868884321690843BE
:100CA00028602868FF21013108432860FFF7C6FD4E
:100CB00006462CE02A68520502D5E268002A89D04F
:100CC0006A687F231B029A4363691B021A436A60A6
:100CD000002800E08DE00ED1286888432169084390
:100CE0002860286801218004400F8140A648FFF752
:100CF00001FAA6490860A6480068FFF7FFFD002832
:100D000077D122E0FFF79AFD801B02289FD8286840
:100D10004005F7D568687F210902884361690902A7
:100D20000843686011E02968FF2001308143296091
:100D3000FFF784FD064605E098E0FFF77FFD801B86
:100D4000022884D828684005F7D42078914E0007FF
:100D50002ED5A8688006400F03280AD0A069002875
:100D6000306A16D0012108433062FFF767FD07465D
:100D70000BE0306A80071BD5A06900289FD017E0E0
:100D8000FFF75CFDC01B022870D8306A8007F7D5DA
:100D90000EE0400840003062FFF750FD074604E0D7
:100DA000FFF74CFDC01B022860D8306A8007F7D4DB
:100DB000207840076CD5A86800278006400F0428DB
:100DC00018D0E86BC00008D4E96B0120000701438C
:100DD000E963E96B0140012700916F480168C9058B
:100DE00019D40168821511430160FFF727FD0090B7
:100DF0000DE083E0F06980074AD5A06800287DD027
:100E000046E0FFF71BFD0099401A02282ED86248E1
:100E10000068C005F5D5A168012910D00420052976
:100E2000F16911D049084900F161F1698143F1612B
:100E3000A068002816D0FFF701FD00900EE0F069D1
:100E400001210843F061F3E70143F161F7E7FFF7A0
:100E5000F5FC0099411A5148814265D8F069800734
:100E6000F5D50EE0FFF7EAFC009007E05CE0FFF745
:100E7000E5FC0099411A4948814255D8F06980073C
:100E8000F5D4002F04D0E96B012000078143E9630A
:100E9000E069002873D0A9688906490F02294DD05E
:100EA000012636060228286805D0B0432860FFF7DF
:100EB000C5FC04463AE0B0432860FFF7BFFC074694
:100EC00004E0FFF7BBFCC01B02282DD82868800176
:100ED000F7D4616A206AA26A0843E16A12021143E8
:100EE0000843216B0843E9682D4A11400843E86034
:100EF000286830432860E868012100E03DE00907E8
:100F00000843E860FFF79AFC044604E0FFF796FC0C
:100F1000001B022808D828688001F7D52FE0FFF7CA
:100F20008DFC001B022801D90320F8BD2868800130
:100F3000F5D4E8681B490840E86020E00128F4D0B7
:100F4000E868226A8107890F914216D17021626A8E
:100F50000140914211D17F21A26A0902014012028F
:100F600091420AD11F214904E26A0140914204D111
:100F7000400F216B4007884201D00120F8BD0020BE
:100F8000F8BD0000001002400024F400140000200E
:100F90000C00002040100240007000408813000048
:100FA0008C80C11FFCFFFEEF094910B5401E88422E
:100FB00001D9012010BD074C60610321081F00F01A
:100FC00003FB0020A06107202061002010BD00006D
:100FD000FFFFFF0000E000E070B5040005D02546EB
:100FE0008035A868002802D006E0012070BD0020EE
:100FF0002871204600F026F82420A86020680168A7
:10100000490849000160A06A002802D0204600F08B
:101010009FF8204600F090F90128E7D02068416849
:101020000922D20291434160206881682A229143BB
:10103000816020680168012211430160204600F0B0
:10104000EDF870BD10B586B0044614216846FFF770
:101050006EF81149206888421CD11048C26B0121EA
:1010600049040A43C263C26B0A400592426B0121E4
:101070000A434263406B0491084005900C200090A5
:10108000022001900020029003900520694600078D
:10109000FFF71AFB06B010BD0044004000100240EC
:1010A000FEE7000010B50D480B490160E12149023F
:1010B000416000218160C16001618161C1610162A3
:1010C0000C22416242618162FFF786FF002801D055
:1010D00072B6FEE710BD0000004400403C01002055
:1010E000FEE77047704710B5FFF7ECFB10BD10B579
:1010F00092B034216846FFF71AF8002401200D94BD
:101100000E940F9440021094FFF736FC0A200090D2
:10111000FF200130039040200590012006900494A8
:1011200007946846FFF754FD002801D072B6FEE729
:1011300007200D900E940F94002110940DA8FFF736
:1011400041FC002801D072B6FEE712B010BD704716
:1011500010B5018D090707D501684A680123DB0333
:101160009A43836B1A434A60018DC90707D001680F
:101170004A6801235B049A43C36A1A434A60018D9B
:10118000890707D501684A6801231B049A43036B4A
:101190001A434A60018D490707D501684A6801234F
:1011A0009B049A43436B1A434A60018DC90607D5D5
:1011B0000268916801231B039943C36B1943916033
:1011C000018D890607D501688A6801235B039A436C
:1011D000036C1A438A60018D490612D503685A6868
:1011E00001210905446C8A4322435A60426C8A42B9
:1011F00007D10268516803235B059943836C194347
:101200005160018D090607D501684A680123DB0496
:10121000C06C9A4302434A6010BD0000FEB505460B
:101220000026803504462E61FFF708FB01902068F8
:10123000006820270007002817DA254800900022C0
:1012400039042046019B00F02BF900280DD0EFF364
:101250001080012181F3108821680A6880239A4355
:101260000A6080F31088AF6028E0206800684007BB
:1012700027D5174800900121002289052046019BAF
:1012800000F00EF900281CD0EFF31080012181F34B
:10129000108821680A68FF2321339A430A6080F38B
:1012A0001088EFF31080012181F3108821688A688B
:1012B000520852008A6080F31088EF602E7103207C
:1012C000FEBDAF60EF60E66626672E710020FEBDB2
:1012D000FFFFFF0110B5EFF31081012282F31088A8
:1012E00002681368FF242134A343136081F310883C
:1012F000EFF31081012282F31088026893680D4C8D
:101300002340936081F31088C16E01290BD1EFF364
:101310001081012282F31088026813681024A3430D
:10132000136081F3108820228C210A500021C166AD
:10133000416710BDFEFFFFEFF8B5044680682169E4
:10134000E269084361690025114322680843116876
:101350004B4B19400143116020684168032212037E
:101360009143E26811434160A169206A0843216802
:101370008A68444B1A4002438A602068C16A626AE4
:10138000090909011143C1623F492068884211D10E
:101390003E4840698007800F0FD0012806D0022800
:1013A00002D003280BD103E0022109E0042107E069
:1013B000082105E03649884201D1002100E01021D2
:1013C0000120E369C003334A334E344F834227D1AF
:1013D000002906D0022907D0042907D008293FD1C7
:1013E00008E0FFF79BFB03E0104603E0FFF7AAFBD2
:1013F00000283AD0616A4900715AFEF77BFE6168A5
:1014000040004A088018FEF775FE01461039B942BF
:1014100026D82249491C01400007400F084322E01A
:10142000002906D0022907D0042907D0082917D19E
:1014300008E0FFF773FB03E0104603E0FFF782FBD1
:10144000002812D0616A4900715AFEF753FE6168A4
:101450004A088018FEF74EFE01461039B94201D9FC
:10146000012502E080B22168C86020460121403099
:101470004185018500206067A0672846F8BD00000F
:10148000F369FFCFFFF4FF11003801404010024024
:10149000004400400024F40060250008EFFF000035
:1014A000FFB581B005460E46044680350A9F32E0FE
:1014B000781C30D0FFF7C2F90499401AB84218D806
:1014C000002F16D020680168490724D5802E22D02D
:1014D000402E20D0C169C94309070CD408260662F2
:1014E0002046FFF7F7FE2E6100202871012005B08D
:1014F000F0BD0320FBE7C069C04300050BD4012009
:101500002168C00208622046FFF7E4FE202028611F
:1015100000202871EDE72068C1693046884305D076
:10152000002103988142C3D00020E0E70121F8E7C1
:101530000FB410B503AA0D48029900F01BF80B4830
:10154000FEF700FE0A49CA695206FCD50022074B85
:1015500005E09C5C8C62CC696406FCD5521C82421E
:10156000F7D310BC08BC04B01847000018000020D6
:101570000044004037B514460846064B6A462146EB
:1015800000F00EF904466946002000F0A7FC204652
:101590003EBD0000DD1E00082021020C01D01021FC
:1015A0001046020A01D010460839020901D010463F
:1015B000091F820801D01046891E420801D0881EEA
:1015C0007047081A704700008307FF22DB0E9A401D
:1015D0008907090E9940002808DB830809489B0009
:1015E0001B18186890430843186070470007000FE5
:1015F0000838830804489B001B18D86990430843A7
:10160000D861704700E400E000ED00E002E008C8A7
:10161000121F08C1002AFAD170477047002001E06C
:1016200001C1121F002AFBD170470000F0B51FB4A2
:1016300086B00998089A030D0021024314D051483E
:10164000514A1818504305141198012810981AD0BF
:10165000281A401C00264D4F4D49009601910490D8
:10166000002812DA444211E01198012449A301280C
:1016700001D11098C1430698119A84600360C2603A
:1016800041600BB0F0BD4042E4E704462105002074
:101690003F4A001C51410391029012E0E00707D03D
:1016A00032463B4601990098FEF738FE01910090C2
:1016B00032463B4610461946FEF730FE06460F46B8
:1016C0006410002CEAD10498039B0028029A09991F
:1016D000089806DAFEF722FE019B009AFEF71EFE2E
:1016E00005E0FEF783FE019B009AFEF77FFE0446AD
:1016F0000E460022284BFEF711FF03D80020C043FE
:10170000014607E00022254B20463146FEF752FDF8
:10171000FEF7E4FE102409E0002C0ADB0A22002375
:10172000FEF717FD079B30321A55641E02460A4326
:10173000F2D11122641C079B121B1C19119B012B57
:1017400003D0012308430ED10AE0084304D011203E
:1017500010900020119077E71098151A6D1E0BE07D
:101760001098824202DD00236D1C03E0824201DA00
:1017700000236D1E002BEED0069811998260C16087
:1017800030C07EE701FCFFFF104D00000000144058
:101790000000F03F300000000000F0430000E03F98
:1017A000FFB597B0064600251BE2252876D1002418
:1017B0002746F749049400E00443761C3278012060
:1017C000203A90400842F7D130782A280ED00222E1
:1017D000307801463039092916D804990A2359432B
:1017E000303940181443761C0490F1E7189802C869
:1017F00004911890002904DA012040030443484270
:10180000049002200443761C30782E2814D1042042
:1018100004437078761C2A2809D11898761C80C851
:10182000189009E00A214F43303FC719761C3078E1
:10183000014630390929F5D930786C2810D006DCFA
:101840004C281AD068280ED06A2817D104E07428D2
:1018500013D07A2812D110E00120400504430CE097
:101860000121090501E0032109050C43717881423A
:1018700003D1012000052418761C761C30786628D8
:101880000BD013DC58287DD009DC00287BD04528FC
:10189000F6D04628F4D047281AD1A9E118E06328E9
:1018A00035D0642870D0652812D1A1E170286CD0A1
:1018B00008DC6728F1D069287DD06E280DD06F280C
:1018C00006D1BCE073282ED0752873D0782859D063
:1018D0001A9A199990476D1C82E16002400F022804
:1018E00009D003280DD00428189801680DD00D6088
:1018F000001D189074E11898EA1701680D604A609D
:10190000F6E7189801680D80F2E70D70F0E7189877
:101910006A4601781172001D18900020507202A8CA
:101920000090012005E0189802C81890002000914E
:10193000C04361070ED5002101E00199491C0191C6
:10194000B94213DA8142F8DB019A0099895C0029D7
:10195000F3D10BE0002101E00199491C0191814282
:10196000FADB019A0099895C0029F5D10199049864
:101970001A9B471A21463846199A00F099FA4019DD
:10198000019903E051E030E115E050E0451807E02F
:10199000009800990078491C00911A9A199990476B
:1019A0000198401E0190401CF2D1214638461A9BF6
:1019B000199A12E137E00A2000210090019160029B
:1019C000410F022907D0189A01CA1892C2179446EB
:1019D000032908D00AE01898C01DC108C90005C92C
:1019E0001891944607E000B2C2179446042902D128
:1019F00040B2C1178C4600226146944506DA0A4679
:101A00000021404291418C462D2102E0210504D560
:101A10002B216A461173012103E0E10701D0202147
:101A2000F7E7029156E00A200AE0102008E01020B3
:101A300000900021042004430191082703E00820BE
:101A40000021019100906002410F022907D0189AED
:101A500001CA189200229446032908D008E0189879
:101A6000C01DC108C90005C91891944603E080B2A1
:101A7000042900D1C0B20021029121072AD5317872
:101A80000D91702906D0009A1021019B4A401A43FB
:101A900005D00EE040216A461173012108E061463D
:101AA000014306D030216A4611730D99517302210A
:101AB0000291009A0821019B4A401A430AD16146CB
:101AC000014301D1610705D530216A461173012117
:101AD0007F1E02913178582904D02EA10E910DA9B4
:101AE0000D910DE030A1F9E76146019B009AFEF7E8
:101AF00030FB0E9B8C469B5C0D9A521E0D92137010
:101B000061460143F0D10D9805A9081A20300190D3
:101B1000600703D501200004844300E001270198F9
:101B2000874201DD381A00E0002001990090411839
:101B3000029809180498401A0490E00306D421463C
:101B40001A9B199A049800F0B3F94519002706E08A
:101B500003A81A9AC05D199990476D1C7F1C0298C2
:101B60008742F5DBE0030CD521461A9B199A0498AD
:101B700000F09EF9451904E01A9A3020199990470F
:101B80006D1C0099481E00900029F5DC1FE0000044
:101B90000928010030313233343536373839616243
:101BA0006364656600000000303132333435363707
:101BB0003839414243444546000000000D980D99D4
:101BC0000078491C0D911A9A199990476D1C01993A
:101BD000481E01900029F1DC4DE100F059F945194A
:101BE000761C3078002800D0DFE528461BB0F0BD19
:101BF000600700D406271898C01DC108C9004868AE
:101C00000A680831C30FDB071891190001D09CA1A5
:101C100008E0210501D59BA104E0E10701D09AA1CC
:101C200000E09AA14300109130785B0865280CD041
:101C300006DC452809D046281DD0472841D141E07F
:101C4000662818D067283CD13CE00021112F01DB29
:101C5000112000E0781C0191009008A911A8FFF75D
:101C6000E5FC139905910021119A15927F1C129899
:101C70000197009150E00120C007039001200190DE
:101C800008A9009711A8FFF7D1FC139A149905929F
:101C90000022119B009212981593059A0192002937
:101CA00001D0104602E0791C40180190381A01D585
:101CB000019804E04042401E0090781C0190C01B37
:101CC000029043E0012F00DA01270021112F01DDEE
:101CD000112000E038460191009008A911A8FFF7F3
:101CE000A5FC13990591119A002112981592009163
:101CF000019721070CD40599B94201DB019900E055
:101D00000191012904DD159A491E515C302906D044
:101D1000B84201DA011D05DA0121029115E00199AD
:101D2000491EEDE7002805DC009941180091019952
:101D3000091A03E0019A411C914200DD01910099CA
:101D4000401A401C02900120C0070390200706D4CF
:101D500002990198814202DB0020C04302900020DA
:101D60006946C87707AF012103980337C90788423E
:101D700024D0022011902B201290039800280CDA16
:101D8000404203902D20129007E00A210398FEF7AD
:101D9000B1F930317F1E039039701199481E1190AE
:101DA0000029F2DC03980028EFD1791E1298087000
:101DB0003078202108404530BF1E387006A8C01B6F
:101DC000C01D039010980078002800D001200199D0
:101DD00041180298C0170918039809180498401A66
:101DE000401E0490E00306D421461A9B199A0498D9
:101DF00000F05EF8451910980078002803D01A9A70
:101E0000199990476D1CE00324D521461A9B199A15
:101E1000049800F04DF845191CE00098002807DBF5
:101E200000990598884203DD1598405C199901E0F6
:101E3000199930201A9A904700986D1C401C009008
:101E40000298401E0290002804D11A9A2E20199957
:101E500090476D1C0199481E01900029DDDC05E0CA
:101E600038781A9A7F1C199990476D1C0399481E5F
:101E700003900029F4DC21461A9B199A0498ACE6D9
:101E80002D0000002B0000002000000000000000DA
:101E9000F8B5044600251E461746880404D405E01C
:101EA00039462020B0476D1C641EF9D52846F8BD80
:101EB000FFB50446002581B01E46C80301D5302772
:101EC00000E02027880404D505E038460399B04790
:101ED0006D1C641EF9D5284605B0F0BD0A68531C78
:101EE0000B6010707047884201D9401A7047081A79
:101EF0007047002801DA0A3070470A28FCDB00200E
:101F000070470000F8B5002705260F20FEF7BFFB3D
:101F100000F0BCF905460F20FEF7B9FB00F0B6F95A
:101F200004460F20FEF7B3FB00F0B0F900900F203D
:101F3000FEF7ADFB00F0AAF9024621462846FFF75E
:101F4000D2FF134B984217D220460099FFF7CBFFE0
:101F5000984211D211460098FFF7C5FF98420BD264
:101F600011462846FFF7BFFF984205D2009829196D
:101F700080180818870802E0761E002EC5DC054987
:101F800000208200401C8F500A28FADB3846F8BD3A
:101F9000204E0000D0010020F3B505273F0781B097
:101FA000012202213846FEF742FC00220121384678
:101FB000FEF73DFC124C03260125E6600220214677
:101FC000A56021C43846083CFEF77EFBA56025606D
:101FD000E660214638466560FEF776FB0022012167
:101FE0003846FEF724FC0198FEF75CFB6520029959
:101FF00000F0ACF9002201213846FEF718FCFEBDC6
:102000001801002086B0FEF765FCFFF770F8142178
:102010006846FEF78CF85048416B01242143416328
:10202000406B052520402D070590002211212846F0
:10203000FEF7FDFB01949120002400900294694674
:1020400028460394FEF740FB622000900194694605
:1020500002942846FEF738FB4148404901600221BE
:1020600041604049C1608160FEF7EEFB002801D06D
:1020700072B6FEE7FFF716F86C24FF202146F53014
:10208000FFF78AFF2146652000F060F90021562005
:1020900000F05CF90446014633A0FFF749FA6C2CC6
:1020A0000BD06C21652000F051F90021562000F082
:1020B0004DF9014630A0FFF73BFAFFF723FF324FFF
:1020C000202178602C462846FEF7ACFB009040218A
:1020D0002046FEF7A7FB05462148FEF7EBFB012053
:1020E000FEF7D5FA00F0D2F800F050F8064640218D
:1020F0002046FEF797FB00280ED1012D0CD16C2550
:10210000FF202946F530FFF747FF2946652000F0FC
:102110001DF9FFF7F7FE786040212046FEF782FBAD
:10212000054620212046FEF77DFB002805D10098BA
:10213000012802D1FFF7E6FE786020212046FEF755
:1021400071FB0090002E01D0012200E0002210213E
:102150002046FEF76CFBBFE7001002400030004055
:102160002C010020FF0F00004D526561643A307869
:102170002578200A0000000053526561643A3078E7
:102180002578200A000000000000002070B53C4ABD
:10219000002511680A2901D300211160394B8C00F8
:1021A00018517D245668A4013619B04231D9481E11
:1021B000FFF79FFE8000516818580E19B04228D9C9
:1021C000106886009E59711A2F4EB14221D2401ECE
:1021D000FFF78FFE80001958106880001858FFF72D
:1021E00082FEA04215D21068401EFFF782FE8000DA
:1021F0001958106886009E59B14209D9401EFFF750
:1022000078FE80005168195010688000195000E075
:1022100001251068801EFFF76CFE80005168185879
:102220000919884227D91068C01EFFF762FE800096
:1022300051681858091988421DD91068401EFFF7C7
:1022400058FE8000516818580919884213D910683F
:10225000FFF74FFE800051681858091988420AD9C3
:102260001068001FFFF745FE8000516818580919D3
:10227000884200D901251068401C1060284670BDB6
:1022800000000020D0010020A0860100F8B52E4CEF
:10229000022000252060012628460327221DC1C2F6
:1022A000052021460007FEF70FFAA66026600520EC
:1022B000E760214600076660FEF706FA0526360746
:1022C00002213046FEF7AEFA0128F9D0002701229C
:1022D0006D0011463046FEF7AAFA00220121304671
:1022E000FEF7A5FA02213046FEF79CFA012800D13C
:1022F0006D1C7F1CBFB2182FE9D3002701221146A5
:102300003046FEF794FA002201213046FEF78FFA9C
:102310007F1CBFB2032FF1D30120A06002202060F8
:10232000002060600320E06007493046FEF7CCF9EA
:1023300001212846C90548407D21C900FDF7DAFE84
:102340007D21C9004843F8BD18010020F8B50025DB
:102350000E4607462C460095652801D101200090C5
:102360007E4801218160022101600021416003213A
:10237000C160014605200007FEF7A6F904E0641CD1
:10238000A4B20120FEF78EF9052002210007FEF716
:1023900049FA012803D1FF2041308442EFD3FF20C6
:1023A0004130844201D30020F8BD012401220520E0
:1023B00011460007FEF73BFA052000220121000725
:1023C000FEF735FA641CA4B2192CEFD319240122AC
:1023D000052011460007FEF72AFA052000220121F8
:1023E0000007FEF724FA052002210007FEF71AFA7B
:1023F000641CA4B21B2CEAD3052401222407114635
:102400002046FEF714FA002201212046FEF70FFABB
:10241000012211462046FEF70AFA00220121204639
:10242000FEF705FA012211462046FEF700FA0022C7
:1024300001212046FEF7FBF9484801220221826073
:1024400006C00321416045492046FEF73DF91E24A0
:102450000122052011460007FEF7E9F9780601D5AB
:10246000012200E00022052002210007FEF7DFF92B
:102470000520002201210007FEF7D9F97806641C27
:10248000070EA4B2252CE3D305240122240711460C
:102490002046FEF7CCF9002201212046FEF7C7F9BD
:1024A000009800281AD02627012211462046FEF760
:1024B000BEF9F00901D0012200E0002202212046ED
:1024C000FEF7B5F9002201212046FEF7B0F97006AB
:1024D0007F1C060EBFB22E2FE6D325E01F48012138
:1024E000816002210160002141600321C160014639
:1024F0002046FEF7E9F826266806050E0122114659
:102500002046FEF794F9002201212046FEF78FF9BC
:1025100002212046FEF786F9012801D16D1CEDB29B
:10252000761CB6B22E2EE7D3012211462046FEF7C6
:102530007EF9002201212046FEF779F907480121A2
:10254000816002210160002141600321C1600146D8
:102550002046FEF7B9F82846F8BD00001801002013
:10256000010002000400060008000A000C00100030
:10257000200040008000000100000000000000007A
:10258000000000000000000000000000000000004B
:102590000000000000000000010000000200000038
:1025A0000300000004000000060000000700000017
:1025B000080000000900000000000000000000000A
:1025C0000000000000000000010000000200000008
:1025D0000300000004000000F825000800000020AF
:1025E000180000000C160008102600081800002033
:1025F000E00500001C1600080000000000000000BC
:102600000100000004000000000000000024F400AD
:04000005080000C12E
:00000001FF
